:100000000C9462000C948A000C948A000C948A0070
:100010000C948A000C948A000C948A000C948A0038
:100020000C948A000C948A000C948A000C948A0028
:100030000C948A000C948A000C948A000C948A0018
:100040000C94DF030C948A000C94AD030C9487038A
:100050000C948A000C948A000C948A000C948A00F8
:100060000C948A000C948A000000000024002700F1
:100070002A0000000000250028002B0000000000DE
:1000800023002600290004040404040404040202DA
:100090000202020203030303030301020408102007
:1000A0004080010204081020010204081020000012
:1000B0000008000201000003040700000000000027
:1000C0000000290411241FBECFEFD8E0DEBFCDBF52
:1000D00022E0A4E6B1E001C01D92A435B207E1F729
:1000E00011E0A0E0B1E0ECE6FEE002C005900D9268
:1000F000A436B107D9F710E0C2E6D0E004C02197DA
:10010000FE010E942E07C136D107C9F70E9468047C
:100110000C9434070C940000E1E7F1E0A089B18968
:1001200082E08C93A485B5851C92A685B7858FEC5B
:100130008C93108EA489B58986E08C93A289B389AB
:100140008C9180618C93A289B3898C9188608C9307
:10015000A289B3898C9180688C930288F389E02D01
:1001600080818F7D80830895AF92BF92CF92DF927E
:10017000EF92FF920F931F93CF93DF936C017B015C
:100180008B01040F151FEB015E01AE18BF08C017ED
:10019000D10759F06991D601ED91FC910190F08160
:1001A000E02DC6010995892B79F7C501DF91CF9123
:1001B0001F910F91FF90EF90DF90CF90BF90AF9085
:1001C0000895FC01538D448D252F30E0842F90E05D
:1001D000821B930B541710F0CF9608950197089542
:1001E000FC01918D828D981761F0A28DAE0FBF2F0B
:1001F000B11D5D968C91928D9F5F9F73928F90E061
:1002000008958FEF9FEF0895FC01918D828D9817CF
:1002100031F0828DE80FF11D858D90E008958FEF0C
:100220009FEF0895FC01918D228D892F90E0805CD5
:100230009F4F821B91098F739927089581E791E061
:100240000E94120121E0892B09F420E0822F0895F9
:1002500080E090E0892B29F00E941E0181110C940E
:1002600000000895FC01A48DA80FB92FB11DA35A59
:10027000BF4F2C91848D90E001968F739927848FC6
:10028000A689B7892C93A089B1898C9183708064E9
:100290008C93938D848D981306C00288F389E02D8A
:1002A00080818F7D80830895EF92FF920F931F933B
:1002B000CF93DF93EC0181E0888F9B8D8C8D981319
:1002C0001AC0E889F989808185FF15C09FB7F89425
:1002D000EE89FF896083E889F98980818370806471
:1002E00080839FBF81E090E0DF91CF911F910F91BC
:1002F000FF90EF900895F62E0B8D10E00F5F1F4FCB
:100300000F731127E02E8C8D8E110CC00FB607FCD9
:10031000FACFE889F989808185FFF5CFCE010E9467
:100320003201F1CFEB8DEC0FFD2FF11DE35AFF4FA2
:10033000F0829FB7F8940B8FEA89FB8980818062F5
:10034000CFCFCF93DF93EC01888D8823B9F0AA89B2
:10035000BB89E889F9898C9185FD03C0808186FD80
:100360000DC00FB607FCF7CF8C9185FFF2CF8081CF
:1003700085FFEDCFCE010E943201E9CFDF91CF9111
:100380000895833081F028F4813099F08230A9F00B
:1003900008958730A9F08830C9F08430B1F4809195
:1003A00080008F7D03C0809180008F7780938000D4
:1003B000089584B58F7784BD089584B58F7DFBCF74
:1003C0008091B0008F778093B00008958091B00045
:1003D0008F7DF9CF1F93CF93DF93282F30E0F90162
:1003E000E255FF4F8491F901E656FF4FD491F90190
:1003F000EA57FF4FC491CC23A9F0162F81110E9418
:10040000C101EC2FF0E0EE0FFF1FEE58FF4FA5915A
:10041000B4918FB7F894EC91111108C0D095DE23F8
:10042000DC938FBFDF91CF911F910895DE2BF8CF22
:100430008230910538F0880F991F880F991F059712
:100440000197F1F708953FB7F89480916901909171
:100450006A01A0916B01B0916C0126B5A89B05C003
:100460002F3F19F00196A11DB11D3FBFBA2FA92F33
:10047000982F8827BC01CD01620F711D811D911D30
:1004800042E0660F771F881F991F4A95D1F708959C
:100490008F929F92AF92BF92CF92DF92EF92FF9294
:1004A0004B015C010E9423026B017C010E9423022C
:1004B0006C197D098E099F09683E7340810591057D
:1004C000A8F321E0821A9108A108B10888EEC80EAD
:1004D00083E0D81EE11CF11C81149104A104B10435
:1004E00029F7FF90EF90DF90CF90BF90AF909F9053
:1004F0008F9008952FB7F89460916501709166010F
:1005000080916701909168012FBF0895CF93C82F04
:1005100060E00E94EA018C2F90E0FC01E656FF4F5C
:1005200024918A579F4FFC018491882399F090E091
:10053000880F991FFC01E859FF4FA591B491FC0168
:10054000EE58FF4F859194918FB7F894EC91E22B80
:10055000EC938FBF81E090E0CF910C941802CF9381
:10056000DF9390E0FC01E656FF4F24918A579F4F9E
:10057000FC0184918823C1F090E0880F991FFC0151
:10058000E859FF4FC591D491FC01EE58FF4FA5915A
:10059000B4919FB7F8943881822F80958323888304
:1005A000EC91E22BEC939FBF81E090E0DF91CF9143
:1005B0000C941802FC0101900020E9F73197AF017B
:1005C000481B590BBC0181E791E00C94B4008F9259
:1005D0009F92AF92BF920F931F93CF93DF93CDB7AC
:1005E000DEB7A1970FB6F894DEBF0FBECDBF19A23C
:1005F000423008F44AE08E010F5D1F4F842E912C8B
:10060000B12CA12CA50194010E940C07E62FB90181
:10061000CA01EA30F4F4E05DD801EE938D01232B9A
:10062000242B252B79F790E080E0109719F0CD016D
:100630000E94DA02A1960FB6F894DEBF0FBECDBFBE
:10064000DF91CF911F910F91BF90AF909F908F90AE
:100650000895E95CE1CFCF93DF930E94DA02EC01C9
:1006600082E191E00E94DA028C0F9D1FDF91CF9111
:100670000895EF92FF920F931F93CF93DF9300D0D3
:1006800000D0CDB7DEB781E791E00E94F00081E7AE
:1006900091E00E94F0008E010F5F1F4F78018A33B6
:1006A00041F0F80181938F0181E791E00E94F00011
:1006B000F6CFC7010E94E606182F81E791E00E945D
:1006C000F0008053990B8230910520F4682F812F20
:1006D0000E94EA0181E791E00E94F0008A3011F067
:1006E0008D30C1F781E791E00E9404018A3021F446
:1006F00081E791E00E94F0000F900F900F900F9013
:10070000DF91CF911F910F91FF90EF9008951F926D
:100710000F920FB60F9211242F933F934F935F9335
:100720006F937F938F939F93AF93BF93EF93FF93B9
:1007300081E791E00E943201FF91EF91BF91AF916B
:100740009F918F917F916F915F914F913F912F91E9
:100750000F900FBE0F901F9018951F920F920FB61B
:100760000F9211242F938F939F93EF93FF93E09118
:100770008101F09182018081E0918701F0918801EF
:1007800082FD1BC0908180918A018F5F8F732091C1
:100790008B01821741F0E0918A01F0E0EF58FE4FA3
:1007A000958F80938A01FF91EF919F918F912F9167
:1007B0000F900FBE0F901F9018958081F4CF1F925D
:1007C0000F920FB60F9211242F933F938F939F9305
:1007D000AF93BF938091650190916601A0916701ED
:1007E000B09168013091640123E0230F2D3758F553
:1007F0000196A11DB11D2093640180936501909322
:100800006601A0936701B09368018091690190919E
:100810006A01A0916B01B0916C010196A11DB11DFF
:100820008093690190936A01A0936B01B0936C016E
:10083000BF91AF919F918F913F912F910F900FBEDC
:100840000F901F90189526E8230F0296A11DB11D49
:10085000D2CFE1E7F1E01382128288EE93E0A0E0CC
:10086000B0E084839583A683B78384E091E091838D
:10087000808385EC90E09587848784EC90E097876F
:10088000868780EC90E0918B808B81EC90E0938B5D
:10089000828B82EC90E0958B848B86EC90E0978B3A
:1008A000868B118E128E138E148EEEE0F2E016827D
:1008B0001782108611861286138614861586168670
:1008C0001786108A118A128A138A148A158A089543
:1008D000CF93DF9300D000D0CDB7DEB7789484B546
:1008E000826084BD84B5816084BD85B5826085BD2C
:1008F00085B5816085BD80916E00816080936E00BA
:1009000010928100809181008260809381008091AB
:10091000810081608093810080918000816080935C
:1009200080008091B10084608093B1008091B0001C
:1009300081608093B00080917A00846080937A0017
:1009400080917A00826080937A0080917A00816041
:1009500080937A0080917A00806880937A00109268
:10096000C100109250021092510210925202109245
:100970005302109210021092110210921202109261
:1009800013020E947A026B017C014B015C0128EB8F
:10099000820E2BE0921EA11CB11C0E947A026C15E3
:1009A0007D058E059F0528F086169706A806B906D0
:1009B000A0F768EE73E080E090E00E9448020E9499
:1009C0008C000E947A02609310027093110280934F
:1009D00012029093130285E191E00E94DA020E94D4
:1009E0007A026B017C014B015C013AE0830E911CA1
:1009F000A11CB11C0E947A026C157D058E059F0515
:100A000028F086169706A806B906A0F781E080931D
:100A100024020E947A026093100270931102809364
:100A200012029093130286E291E00E94DA020E9481
:100A30008C002CEA222E20E0322E34EF432E552457
:100A40005394612C712C0E947A02672B682B692BBE
:100A500009F4EBC00E947A0200916D0110916E01C1
:100A600020916F0130917001601771078207930721
:100A700008F49DC100916D0110916E0120916F01EC
:100A8000309170016B017C01C01AD10AE20AF30AAD
:100A900097018601083E13402105310508F4CDC0B9
:100AA00060936D0170936E0180936F01909370015C
:100AB00040921C0250921D0260921E0270921F0210
:100AC0001092200210922102109222021092230210
:100AD0008091140290911502A0911602B091170214
:100AE0008093180290931902A0931A02B0931B02EC
:100AF0000E947A026093140270931502809316028A
:100B00009093170281E791E00E940401843611F46A
:100B10000E9439030E947A026093100270931102BE
:100B200080931202909313020E947A026B017C015F
:100B30008DE291E00E94DA024AE061E070E080E03C
:100B400090E00E94E70284E391E00E94DA024AE02A
:100B5000C701B6010E94E70286E391E00E94DA0233
:100B60008091140290911502A0911602B091170283
:100B7000A7019601281B390B4A0B5B0BCA01B9016F
:100B80004AE00E94E70286E391E00E94DA02609167
:100B90001402709115028091160290911702009133
:100BA00018021091190220911A0230911B02601B49
:100BB000710B820B930B4AE00E94E70288E391E0FD
:100BC0000E94DA020E947A024AE00E94E7028AE367
:100BD00091E00E942B030E947A024B015C017C0190
:100BE0006B0135E0C30ED11CE11CF11C0E947A029E
:100BF000681579058A059B0528F0C616D706E8060C
:100C0000F906A0F781E791E00E940401843611F40F
:100C10000E9439030E947A026093140270931502B5
:100C2000809316029093170208C00E947A026230E5
:100C300071058105910508F00DCFC12CD12C7601ED
:100C4000C394C98282E10E94AF0283E10E94AF0295
:100C500081E090E00E94180282E10E94860281E019
:100C600090E00E94180283E10E94860281E090E0F9
:100C70000E94180207E010E04C2D440F842F90E0F2
:100C80009C838B838B819C81002E02C095958795D8
:100C90000A94E2F780FF94C082E10E94AF0283E1F0
:100CA0000E94AF0281E090E00E94180283E10E945E
:100CB00086020150110930F782E10E94AF0283E100
:100CC0000E94AF02E0ECF0E08491F101F491FA832C
:100CD000E8E9F0E0F491FB83FF2309F475C081118A
:100CE0000E94C1012B81E22FF0E0EE0FFF1FE458BC
:100CF000FF4FA591B4918C913A81382381E009F49A
:100D000080E08A8383E10E94860283E10E9486025A
:100D100082E10E94860281E090E00E94180283E155
:100D20000E94AF0281E090E00E94180282E10E94DE
:100D3000AF0281E090E00E9418024A81411114C084
:100D400081E491E00E94DA025981503120F480E67A
:100D500091E00E94DA0240E1C701B6010E94E70279
:100D600082E691E00E942B038FEFC81AD80AE80AA6
:100D7000F80A90E8C916D104E104F10409F061CF42
:100D800083E191E00E942B0368E873E180E090E04A
:100D90000E944802E0E0F0E0EF2B09F454CE0E94FC
:100DA0001E01882309F44FCE0E9400004CCE6093B0
:100DB0006D0170936E0180936F01909370015ACE14
:100DC00082E10E9486026BCF1A829CCFFC018827A9
:100DD0009927E89421912032E9F3293010F02E3040
:100DE000C8F32B3241F02D3239F4689404C00E94CC
:100DF0000407820F911D219120532A30C0F31EF465
:100E0000909581959F4F08957AE0979F902D879FA9
:100E1000802D910D11240895A1E21A2EAA1BBB1B4F
:100E2000FD010DC0AA1FBB1FEE1FFF1FA217B307B6
:100E3000E407F50720F0A21BB30BE40BF50B661FCC
:100E4000771F881F991F1A9469F760957095809590
:100E500090959B01AC01BD01CF010895EE0FFF1FDE
:0C0E60000590F491E02D0994F894FFCF68
:100E6C00000000005401B400E100A1011201F000E7
:100E7C0004010D0A00564D4450565F317C315F56CB
:100E8C004D4450560A00564D4450525F00564D4446
:100E9C0050455F003A323A007C005F564D44504555
:100EAC00004932432064657669636520666F756E10
:100EBC0064206174206164647265737320307800FF
:040ECC0030002E00C4
:00000001FF
