:100000000C9462000C948A000C948A000C948A0070
:100010000C948A000C948A000C948A000C948A0038
:100020000C948A000C948A000C948A000C948A0028
:100030000C948A000C948A000C948A000C948A0018
:100040000C94CE020C948A000C949C020C947602C0
:100050000C948A000C948A000C948A000C948A00F8
:100060000C948A000C948A000000000025002800EF
:100070002B0000000000240027002A0000000000E0
:1000800023002600290004040404040404040202DA
:100090000202020203030303030301020408102007
:1000A0004080010204081020010204081020000012
:1000B0000008000201000003040700000000000027
:1000C0000000980411241FBECFEFD8E0DEBFCDBFE3
:1000D00011E0A0E0B1E0EAE9F9E002C005900D927C
:1000E000A833B107D9F721E0A8E3B1E001C01D9220
:1000F000AE3DB207E1F710E0C2E6D0E004C02197C0
:10010000FE010E94C504C136D107C9F70E94180339
:100110000C94CB040C940000AF92BF92CF92DF926C
:10012000EF92FF920F931F93CF93DF936C017B01AC
:100130008B01040F151FEB015E01AE18BF08C0173D
:10014000D10759F06991D601ED91FC910190F081B0
:10015000E02DC6010995892B79F7C501DF91CF9173
:100160001F910F91FF90EF90DF90CF90BF90AF90D5
:100170000895FC01538D448D252F30E0842F90E0AD
:10018000821B930B541710F0CF9608950197089592
:10019000FC01918D828D981761F0A28DAE0FBF2F5B
:1001A000B11D5D968C91928D9F5F9F73928F90E0B1
:1001B00008958FEF9FEF0895FC01918D828D981720
:1001C00031F0828DE80FF11D858D90E008958FEF5D
:1001D0009FEF0895FC01918D228D892F90E0805C26
:1001E0009F4F821B91098F739927089581E491E0B5
:1001F0000E94EA0021E0892B09F420E0822F089573
:1002000080E090E0892B29F00E94F60081110C9487
:1002100000000895FC01A48DA80FB92FB11DA35AA9
:10022000BF4F2C91848D90E001968F739927848F16
:10023000A689B7892C93A089B1898C918370806439
:100240008C93938D848D981306C00288F389E02DDA
:1002500080818F7D80830895EF92FF920F931F938B
:10026000CF93DF93EC0181E0888F9B8D8C8D981369
:100270001AC0E889F989808185FF15C09FB7F89475
:10028000EE89FF896083E889F989808183708064C1
:1002900080839FBF81E090E0DF91CF911F910F910C
:1002A000FF90EF900895F62E0B8D10E00F5F1F4F1B
:1002B0000F731127E02E8C8D8E110CC00FB607FC2A
:1002C000FACFE889F989808185FFF5CFCE010E94B8
:1002D0000A01F1CFEB8DEC0FFD2FF11DE35AFF4F1B
:1002E000F0829FB7F8940B8FEA89FB898081806246
:1002F000CFCFCF93DF93EC01888D8823B9F0AA8903
:10030000BB89E889F9898C9185FD03C0808186FDD0
:100310000DC00FB607FCF7CF8C9185FFF2CF80811F
:1003200085FFEDCFCE010E940A01E9CFDF91CF9189
:100330000895833081F028F4813099F08230A9F05B
:1003400008958730A9F08830C9F08430B1F48091E5
:1003500080008F7D03C0809180008F778093800024
:10036000089584B58F7784BD089584B58F7DFBCFC4
:100370008091B0008F778093B00008958091B00095
:100380008F7DF9CF8230910538F0880F991F880F43
:10039000991F05970197F1F708953FB7F894809159
:1003A0003D0190913E01A0913F01B091400126B5E1
:1003B000A89B05C02F3F19F00196A11DB11D3FBF9D
:1003C000BA2FA92F982F8827BC01CD01620F711D6C
:1003D000811D911D42E0660F771F881F991F4A9566
:1003E000D1F70895EF92FF920F931F93CF93DF936E
:1003F000C82FD0E0FE01E255FF4F84918E010656D2
:100400001F4FF801E490CA57DF4FFE01F490FF2020
:1004100091F081110E949901EF2DF0E0EE0FFF1F86
:10042000E859FF4FA591B4918FB7F8949C91E0944F
:10043000E922EC928FBFF8010491FE01C491CC2314
:1004400099F0D0E0CC0FDD1FFE01EE58FF4FA591D3
:10045000B491FE01E859FF4F859194918FB7F894BC
:100460009C91092B0C938FBF81E090E0DF91CF919D
:100470001F910F91FF90EF900C94C201CF93DF93E7
:1004800090E0FC01E656FF4F24918A579F4FFC01F4
:1004900084918823C1F090E0880F991FFC01EE58E9
:1004A000FF4FC591D491FC01E859FF4FA591B4913C
:1004B0009FB7F8943881822F809583238883EC91AD
:1004C000E22BEC939FBF81E090E0DF91CF910C9401
:1004D000C201FC0101900020E9F73197AF01481BF0
:1004E000590BBC0181E491E00C948C001F920F9297
:1004F0000FB60F9211242F933F934F935F936F93F7
:100500007F938F939F93AF93BF93EF93FF9381E478
:1005100091E00E940A01FF91EF91BF91AF919F91ED
:100520008F917F916F915F914F913F912F910F909C
:100530000FBE0F901F9018951F920F920FB60F923B
:1005400011242F938F939F93EF93FF93E091510189
:10055000F09152018081E0915701F091580182FDA4
:100560001BC0908180915A018F5F8F7320915B0136
:10057000821741F0E0915A01F0E0EF5BFE4F958F5A
:1005800080935A01FF91EF919F918F912F910F903E
:100590000FBE0F901F9018958081F4CF1F920F927D
:1005A0000FB60F9211242F933F938F939F93AF9386
:1005B000BF938091390190913A01A0913B01B09194
:1005C0003C013091380123E0230F2D3758F5019677
:1005D000A11DB11D209338018093390190933A01F8
:1005E000A0933B01B0933C0180913D0190913E016D
:1005F000A0913F01B09140010196A11DB11D8093D2
:100600003D0190933E01A0933F01B0934001BF9103
:10061000AF919F918F913F912F910F900FBE0F90AF
:100620001F90189526E8230F0296A11DB11DD2CF69
:10063000CF93DF93CDB7DEB7A1970FB6F894DEBFA7
:100640000FBECDBF789484B5826084BD84B58160CF
:1006500084BD85B5826085BD85B5816085BD80918D
:100660006E00816080936E00109281008091810005
:1006700082608093810080918100816080938100FD
:10068000809180008160809380008091B1008460BF
:100690008093B1008091B00081608093B000809120
:1006A0007A00846080937A0080917A0082608093DF
:1006B0007A0080917A00816080937A0080917A003C
:1006C000806880937A001092C100E0915101F0910E
:1006D000520182E08083E0914D01F0914E01108241
:1006E000E0914F01F09150018FEC808310925901FD
:1006F000E0915501F091560186E08083E09153012D
:10070000F0915401808180618083E0915301F091E8
:100710005401808188608083E0915301F0915401FD
:10072000808180688083E0915301F0915401808141
:100730008F7D808360EC262E60E0362E7CEA872E4B
:1007400070E0972EE0E0AE2EE0E0BE2E02E010E07A
:10075000412C512C3201439482E10E943E0283E1FC
:100760000E943E0281E090E00E94C20182E10E946C
:10077000F20181E090E00E94C20183E10E94F20157
:1007800081E090E00E94C20147E0E42EF12CC80114
:100790000E2C02C0959587950A94E2F780FFC0C0A1
:1007A00082E10E943E0283E10E943E0281E090E0ED
:1007B0000E94C20183E10E94F20121E0E21AF108E5
:1007C00030F782E10E943E0283E10E943E02F10185
:1007D0008491F401F490E8E9F0E0E490EE2009F46B
:1007E000A3C081110E949901EE2DF0E0EE0FFF1FD2
:1007F000E458FF4FA591B4918C91F82281E009F45F
:1008000080E0F82E83E10E94F20183E10E94F20170
:1008100082E10E94F20181E090E00E94C20183E146
:100820000E943E0281E090E00E94C20182E10E94AB
:100830003E0281E090E00E94C201F11035C082E1E9
:1008400091E00E946902FFE0F41520F081E391E05D
:100850000E94690219A273016201CE018196B7015B
:10086000A6014F7055276627772724E0F694E79472
:10087000D794C7942A95D1F74A300CF057C0405D01
:10088000FC014293CF01C114D104E104F10439F712
:10089000EF2B11F00E94690283E391E00E9469024C
:1008A00085E391E00E946902FFEF4F1A5F0A6F0A29
:1008B0007F0A0E5F1F4F0E3F110509F04DCF0E94BA
:1008C000CD016B017C0188E8482E83E1582E612C14
:1008D000712C0E94CD016C197D098E099F09683E1B
:1008E000734081059105A8F321E0421A510861087F
:1008F000710888EEC80E83E0D81EE11CF11C41147B
:1009000051046104710429F7A114B10409F41ECF44
:100910000E94F600882309F419CF0E94000016CF28
:1009200082E10E94F2013FCFF12C6CCF495CA8CF4D
:10093000E1E4F1E01382128288EE93E0A0E0B0E0FF
:1009400084839583A683B78384E091E09183808339
:1009500085EC90E09587848784EC90E09787868784
:1009600080EC90E0918B808B81EC90E0938B828B7C
:1009700082EC90E0958B848B86EC90E0978B868B55
:10098000118E128E138E148E0895EE0FFF1F059098
:0A099000F491E02D0994F894FFCFD4
:10099A00000000002C018C00B9007901EA00C800AF
:1009AA00DC004932432064657669636520666F75A9
:1009BA006E64206174206164647265737320307898
:0809CA000030002E000D0A00B0
:00000001FF
